{
  "_format": "hh-sol-artifact-1",
  "contractName": "Tracking",
  "sourceName": "contracts/Tracking.sol",
  "abi": [
    {
      "inputs": [],
      "stateMutability": "nonpayable",
      "type": "constructor"
    },
    {
      "inputs": [
        {
          "internalType": "string",
          "name": "message",
          "type": "string"
        }
      ],
      "name": "InsufficientPayment",
      "type": "error"
    },
    {
      "inputs": [
        {
          "internalType": "string",
          "name": "message",
          "type": "string"
        }
      ],
      "name": "OnlyReceiver",
      "type": "error"
    },
    {
      "inputs": [
        {
          "internalType": "string",
          "name": "message",
          "type": "string"
        }
      ],
      "name": "OnlySender",
      "type": "error"
    },
    {
      "inputs": [
        {
          "internalType": "string",
          "name": "message",
          "type": "string"
        }
      ],
      "name": "alreadyPaid",
      "type": "error"
    },
    {
      "inputs": [
        {
          "internalType": "string",
          "name": "message",
          "type": "string"
        }
      ],
      "name": "statusNotPending",
      "type": "error"
    },
    {
      "inputs": [
        {
          "internalType": "string",
          "name": "message",
          "type": "string"
        }
      ],
      "name": "statusNotShipped",
      "type": "error"
    },
    {
      "inputs": [
        {
          "internalType": "string",
          "name": "message",
          "type": "string"
        }
      ],
      "name": "wasNotPaid",
      "type": "error"
    },
    {
      "anonymous": false,
      "inputs": [
        {
          "indexed": true,
          "internalType": "uint256",
          "name": "shipmentId",
          "type": "uint256"
        },
        {
          "indexed": true,
          "internalType": "address",
          "name": "sender",
          "type": "address"
        },
        {
          "indexed": true,
          "internalType": "address",
          "name": "receiver",
          "type": "address"
        },
        {
          "indexed": false,
          "internalType": "uint256",
          "name": "pickupTime",
          "type": "uint256"
        },
        {
          "indexed": false,
          "internalType": "uint256",
          "name": "distance",
          "type": "uint256"
        },
        {
          "indexed": false,
          "internalType": "uint256",
          "name": "price",
          "type": "uint256"
        }
      ],
      "name": "ShipmentCreated",
      "type": "event"
    },
    {
      "anonymous": false,
      "inputs": [
        {
          "indexed": true,
          "internalType": "address",
          "name": "sender",
          "type": "address"
        },
        {
          "indexed": true,
          "internalType": "address",
          "name": "receiver",
          "type": "address"
        },
        {
          "indexed": false,
          "internalType": "uint256",
          "name": "deliveryTime",
          "type": "uint256"
        }
      ],
      "name": "ShipmentDelivered",
      "type": "event"
    },
    {
      "anonymous": false,
      "inputs": [
        {
          "indexed": true,
          "internalType": "address",
          "name": "sender",
          "type": "address"
        },
        {
          "indexed": true,
          "internalType": "address",
          "name": "receiver",
          "type": "address"
        },
        {
          "indexed": false,
          "internalType": "uint256",
          "name": "pickupTime",
          "type": "uint256"
        }
      ],
      "name": "ShipmentInTransit",
      "type": "event"
    },
    {
      "anonymous": false,
      "inputs": [
        {
          "indexed": true,
          "internalType": "address",
          "name": "sender",
          "type": "address"
        },
        {
          "indexed": true,
          "internalType": "address",
          "name": "receiver",
          "type": "address"
        },
        {
          "indexed": false,
          "internalType": "uint256",
          "name": "amount",
          "type": "uint256"
        }
      ],
      "name": "ShipmentPaid",
      "type": "event"
    },
    {
      "inputs": [
        {
          "internalType": "uint256",
          "name": "_shipmentId",
          "type": "uint256"
        }
      ],
      "name": "completeShipment",
      "outputs": [],
      "stateMutability": "nonpayable",
      "type": "function"
    },
    {
      "inputs": [
        {
          "internalType": "address",
          "name": "_receiver",
          "type": "address"
        },
        {
          "internalType": "uint256",
          "name": "_pickupTime",
          "type": "uint256"
        },
        {
          "internalType": "uint256",
          "name": "_distance",
          "type": "uint256"
        },
        {
          "internalType": "uint256",
          "name": "_price",
          "type": "uint256"
        }
      ],
      "name": "createShipment",
      "outputs": [],
      "stateMutability": "nonpayable",
      "type": "function"
    },
    {
      "inputs": [],
      "name": "getAllShipments",
      "outputs": [
        {
          "components": [
            {
              "internalType": "address",
              "name": "sender",
              "type": "address"
            },
            {
              "internalType": "address",
              "name": "receiver",
              "type": "address"
            },
            {
              "internalType": "uint256",
              "name": "pickupTime",
              "type": "uint256"
            },
            {
              "internalType": "uint256",
              "name": "deliveryTime",
              "type": "uint256"
            },
            {
              "internalType": "uint256",
              "name": "distance",
              "type": "uint256"
            },
            {
              "internalType": "bool",
              "name": "isPaid",
              "type": "bool"
            },
            {
              "internalType": "enum Tracking.ShippingStatus",
              "name": "status",
              "type": "uint8"
            },
            {
              "internalType": "uint256",
              "name": "price",
              "type": "uint256"
            }
          ],
          "internalType": "struct Tracking.Shipment[]",
          "name": "",
          "type": "tuple[]"
        }
      ],
      "stateMutability": "view",
      "type": "function"
    },
    {
      "inputs": [
        {
          "internalType": "uint256",
          "name": "_shipmentId",
          "type": "uint256"
        }
      ],
      "name": "getShipment",
      "outputs": [
        {
          "components": [
            {
              "internalType": "address",
              "name": "sender",
              "type": "address"
            },
            {
              "internalType": "address",
              "name": "receiver",
              "type": "address"
            },
            {
              "internalType": "uint256",
              "name": "pickupTime",
              "type": "uint256"
            },
            {
              "internalType": "uint256",
              "name": "deliveryTime",
              "type": "uint256"
            },
            {
              "internalType": "uint256",
              "name": "distance",
              "type": "uint256"
            },
            {
              "internalType": "bool",
              "name": "isPaid",
              "type": "bool"
            },
            {
              "internalType": "enum Tracking.ShippingStatus",
              "name": "status",
              "type": "uint8"
            },
            {
              "internalType": "uint256",
              "name": "price",
              "type": "uint256"
            }
          ],
          "internalType": "struct Tracking.Shipment",
          "name": "",
          "type": "tuple"
        }
      ],
      "stateMutability": "view",
      "type": "function"
    },
    {
      "inputs": [
        {
          "internalType": "address",
          "name": "_sender",
          "type": "address"
        }
      ],
      "name": "getShipmentCountByUser",
      "outputs": [
        {
          "internalType": "uint256",
          "name": "",
          "type": "uint256"
        }
      ],
      "stateMutability": "view",
      "type": "function"
    },
    {
      "inputs": [
        {
          "internalType": "address",
          "name": "_user",
          "type": "address"
        }
      ],
      "name": "getUserShipments",
      "outputs": [
        {
          "internalType": "uint256[]",
          "name": "",
          "type": "uint256[]"
        }
      ],
      "stateMutability": "view",
      "type": "function"
    },
    {
      "inputs": [
        {
          "internalType": "uint256",
          "name": "_shipmentId",
          "type": "uint256"
        }
      ],
      "name": "payForShipment",
      "outputs": [],
      "stateMutability": "payable",
      "type": "function"
    },
    {
      "inputs": [],
      "name": "shipmentCount",
      "outputs": [
        {
          "internalType": "uint256",
          "name": "",
          "type": "uint256"
        }
      ],
      "stateMutability": "view",
      "type": "function"
    },
    {
      "inputs": [
        {
          "internalType": "uint256",
          "name": "",
          "type": "uint256"
        }
      ],
      "name": "shipments",
      "outputs": [
        {
          "internalType": "address",
          "name": "sender",
          "type": "address"
        },
        {
          "internalType": "address",
          "name": "receiver",
          "type": "address"
        },
        {
          "internalType": "uint256",
          "name": "pickupTime",
          "type": "uint256"
        },
        {
          "internalType": "uint256",
          "name": "deliveryTime",
          "type": "uint256"
        },
        {
          "internalType": "uint256",
          "name": "distance",
          "type": "uint256"
        },
        {
          "internalType": "bool",
          "name": "isPaid",
          "type": "bool"
        },
        {
          "internalType": "enum Tracking.ShippingStatus",
          "name": "status",
          "type": "uint8"
        },
        {
          "internalType": "uint256",
          "name": "price",
          "type": "uint256"
        }
      ],
      "stateMutability": "view",
      "type": "function"
    },
    {
      "inputs": [
        {
          "internalType": "uint256",
          "name": "_shipmentId",
          "type": "uint256"
        }
      ],
      "name": "startShipment",
      "outputs": [],
      "stateMutability": "nonpayable",
      "type": "function"
    },
    {
      "inputs": [
        {
          "internalType": "address",
          "name": "",
          "type": "address"
        },
        {
          "internalType": "uint256",
          "name": "",
          "type": "uint256"
        }
      ],
      "name": "userShipments",
      "outputs": [
        {
          "internalType": "uint256",
          "name": "",
          "type": "uint256"
        }
      ],
      "stateMutability": "view",
      "type": "function"
    }
  ],
  "bytecode": "0x6080604052348015600f57600080fd5b506000600281905550611e3f806100276000396000f3fe60806040526004361061009c5760003560e01c8063494dad6c11610064578063494dad6c146101a45780639490c9ef146101cf578063aace20b71461020c578063cbc4b18114610237578063f15456b514610260578063f9246c2f146102895761009c565b8063092b3740146100a157806309abeffa146100de5780630cee77db146101075780632ac08a93146101235780633355f01014610167575b600080fd5b3480156100ad57600080fd5b506100c860048036038101906100c391906112b3565b6102c6565b6040516100d59190611464565b60405180910390f35b3480156100ea57600080fd5b50610105600480360381019061010091906112b3565b61041d565b005b610121600480360381019061011c91906112b3565b610670565b005b34801561012f57600080fd5b5061014a600480360381019061014591906112b3565b61087f565b60405161015e9897969594939291906114bc565b60405180910390f35b34801561017357600080fd5b5061018e60048036038101906101899190611566565b610921565b60405161019b91906115a6565b60405180910390f35b3480156101b057600080fd5b506101b9610952565b6040516101c69190611713565b60405180910390f35b3480156101db57600080fd5b506101f660048036038101906101f19190611735565b610b4b565b6040516102039190611811565b60405180910390f35b34801561021857600080fd5b50610221610be2565b60405161022e91906115a6565b60405180910390f35b34801561024357600080fd5b5061025e60048036038101906102599190611833565b610be8565b005b34801561026c57600080fd5b50610287600480360381019061028291906112b3565b610e7a565b005b34801561029557600080fd5b506102b060048036038101906102ab9190611735565b6111a7565b6040516102bd91906115a6565b60405180910390f35b6102ce6111f3565b600080838152602001908152602001600020604051806101000160405290816000820160009054906101000a900473ffffffffffffffffffffffffffffffffffffffff1673ffffffffffffffffffffffffffffffffffffffff1673ffffffffffffffffffffffffffffffffffffffff1681526020016001820160009054906101000a900473ffffffffffffffffffffffffffffffffffffffff1673ffffffffffffffffffffffffffffffffffffffff1673ffffffffffffffffffffffffffffffffffffffff1681526020016002820154815260200160038201548152602001600482015481526020016005820160009054906101000a900460ff161515151581526020016005820160019054906101000a900460ff1660038111156103f6576103f561134b565b5b60038111156104085761040761134b565b5b81526020016006820154815250509050919050565b600080600083815260200190815260200160002090503373ffffffffffffffffffffffffffffffffffffffff168160000160009054906101000a900473ffffffffffffffffffffffffffffffffffffffff1673ffffffffffffffffffffffffffffffffffffffff16146104c5576040517f5db643d20000000000000000000000000000000000000000000000000000000081526004016104bc9061191d565b60405180910390fd5b600060038111156104d9576104d861134b565b5b8160050160019054906101000a900460ff1660038111156104fd576104fc61134b565b5b1461053d576040517f85badb3f00000000000000000000000000000000000000000000000000000000815260040161053490611989565b60405180910390fd5b8060050160009054906101000a900460ff1661058e576040517fc8d5454d000000000000000000000000000000000000000000000000000000008152600401610585906119f5565b60405180910390fd5b60018160050160016101000a81548160ff021916908360038111156105b6576105b561134b565b5b02179055508060010160009054906101000a900473ffffffffffffffffffffffffffffffffffffffff1673ffffffffffffffffffffffffffffffffffffffff168160000160009054906101000a900473ffffffffffffffffffffffffffffffffffffffff1673ffffffffffffffffffffffffffffffffffffffff167faafab9f94340179ff9cefd29621e1772a4b8efab8023163838f1b0a8f6ce5df5836002015460405161066491906115a6565b60405180910390a35050565b600080600083815260200190815260200160002090508060010160009054906101000a900473ffffffffffffffffffffffffffffffffffffffff1673ffffffffffffffffffffffffffffffffffffffff163373ffffffffffffffffffffffffffffffffffffffff1614610718576040517fe8d5d7c700000000000000000000000000000000000000000000000000000000815260040161070f90611a87565b60405180910390fd5b8060050160009054906101000a900460ff161561076a576040517f2568191a00000000000000000000000000000000000000000000000000000000815260040161076190611b19565b60405180910390fd5b80600601543410156107b1576040517f1ff6d58a0000000000000000000000000000000000000000000000000000000081526004016107a890611bab565b60405180910390fd5b60018160050160006101000a81548160ff0219169083151502179055508060010160009054906101000a900473ffffffffffffffffffffffffffffffffffffffff1673ffffffffffffffffffffffffffffffffffffffff168160000160009054906101000a900473ffffffffffffffffffffffffffffffffffffffff1673ffffffffffffffffffffffffffffffffffffffff167f2b6f2473aebafaf8d0889669490135928ec4454d2e29a103fd39693bbca6aef13460405161087391906115a6565b60405180910390a35050565b60006020528060005260406000206000915090508060000160009054906101000a900473ffffffffffffffffffffffffffffffffffffffff16908060010160009054906101000a900473ffffffffffffffffffffffffffffffffffffffff16908060020154908060030154908060040154908060050160009054906101000a900460ff16908060050160019054906101000a900460ff16908060060154905088565b6001602052816000526040600020818154811061093d57600080fd5b90600052602060002001600091509150505481565b6060600060025467ffffffffffffffff81111561097257610971611bcb565b5b6040519080825280602002602001820160405280156109ab57816020015b6109986111f3565b8152602001906001900390816109905790505b5090506000600190505b6002548111610b4357600080828152602001908152602001600020604051806101000160405290816000820160009054906101000a900473ffffffffffffffffffffffffffffffffffffffff1673ffffffffffffffffffffffffffffffffffffffff1673ffffffffffffffffffffffffffffffffffffffff1681526020016001820160009054906101000a900473ffffffffffffffffffffffffffffffffffffffff1673ffffffffffffffffffffffffffffffffffffffff1673ffffffffffffffffffffffffffffffffffffffff1681526020016002820154815260200160038201548152602001600482015481526020016005820160009054906101000a900460ff161515151581526020016005820160019054906101000a900460ff166003811115610ae657610ae561134b565b5b6003811115610af857610af761134b565b5b815260200160068201548152505082600183610b149190611c29565b81518110610b2557610b24611c5d565b5b60200260200101819052508080610b3b90611c8c565b9150506109b5565b508091505090565b6060600160008373ffffffffffffffffffffffffffffffffffffffff1673ffffffffffffffffffffffffffffffffffffffff168152602001908152602001600020805480602002602001604051908101604052809291908181526020018280548015610bd657602002820191906000526020600020905b815481526020019060010190808311610bc2575b50505050509050919050565b60025481565b60026000815480929190610bfb90611c8c565b919050555060006040518061010001604052803373ffffffffffffffffffffffffffffffffffffffff1681526020018673ffffffffffffffffffffffffffffffffffffffff1681526020018581526020016000815260200184815260200160001515815260200160006003811115610c7657610c7561134b565b5b815260200183815250905080600080600254815260200190815260200160002060008201518160000160006101000a81548173ffffffffffffffffffffffffffffffffffffffff021916908373ffffffffffffffffffffffffffffffffffffffff16021790555060208201518160010160006101000a81548173ffffffffffffffffffffffffffffffffffffffff021916908373ffffffffffffffffffffffffffffffffffffffff16021790555060408201518160020155606082015181600301556080820151816004015560a08201518160050160006101000a81548160ff02191690831515021790555060c08201518160050160016101000a81548160ff02191690836003811115610d8d57610d8c61134b565b5b021790555060e08201518160060155905050600160003373ffffffffffffffffffffffffffffffffffffffff1673ffffffffffffffffffffffffffffffffffffffff16815260200190815260200160002060025490806001815401808255809150506001900390600052602060002001600090919091909150558473ffffffffffffffffffffffffffffffffffffffff163373ffffffffffffffffffffffffffffffffffffffff166002547f876644f605c09f137e642a100ea79c3ff90507acc401482bbca37fd22ba292cc878787604051610e6b93929190611cd4565b60405180910390a45050505050565b600080600083815260200190815260200160002090503373ffffffffffffffffffffffffffffffffffffffff168160010160009054906101000a900473ffffffffffffffffffffffffffffffffffffffff1673ffffffffffffffffffffffffffffffffffffffff1614610f22576040517fe8d5d7c7000000000000000000000000000000000000000000000000000000008152600401610f1990611d7d565b60405180910390fd5b60016003811115610f3657610f3561134b565b5b8160050160019054906101000a900460ff166003811115610f5a57610f5961134b565b5b14610f9a576040517fb5960e42000000000000000000000000000000000000000000000000000000008152600401610f9190611de9565b60405180910390fd5b60028160050160016101000a81548160ff02191690836003811115610fc257610fc161134b565b5b02179055504281600301819055506000816006015490508160000160009054906101000a900473ffffffffffffffffffffffffffffffffffffffff1673ffffffffffffffffffffffffffffffffffffffff166108fc829081150290604051600060405180830381858888f19350505050158015611043573d6000803e3d6000fd5b508160010160009054906101000a900473ffffffffffffffffffffffffffffffffffffffff1673ffffffffffffffffffffffffffffffffffffffff168260000160009054906101000a900473ffffffffffffffffffffffffffffffffffffffff1673ffffffffffffffffffffffffffffffffffffffff167f3746ccceb54f44c9b0ee0120e596168d07ec9f6ca303cfdd9810d3b2e2686a2e84600301546040516110ed91906115a6565b60405180910390a38160010160009054906101000a900473ffffffffffffffffffffffffffffffffffffffff1673ffffffffffffffffffffffffffffffffffffffff168260000160009054906101000a900473ffffffffffffffffffffffffffffffffffffffff1673ffffffffffffffffffffffffffffffffffffffff167f2b6f2473aebafaf8d0889669490135928ec4454d2e29a103fd39693bbca6aef18360405161119a91906115a6565b60405180910390a3505050565b6000600160008373ffffffffffffffffffffffffffffffffffffffff1673ffffffffffffffffffffffffffffffffffffffff168152602001908152602001600020805490509050919050565b604051806101000160405280600073ffffffffffffffffffffffffffffffffffffffff168152602001600073ffffffffffffffffffffffffffffffffffffffff1681526020016000815260200160008152602001600081526020016000151581526020016000600381111561126b5761126a61134b565b5b8152602001600081525090565b600080fd5b6000819050919050565b6112908161127d565b811461129b57600080fd5b50565b6000813590506112ad81611287565b92915050565b6000602082840312156112c9576112c8611278565b5b60006112d78482850161129e565b91505092915050565b600073ffffffffffffffffffffffffffffffffffffffff82169050919050565b600061130b826112e0565b9050919050565b61131b81611300565b82525050565b61132a8161127d565b82525050565b60008115159050919050565b61134581611330565b82525050565b7f4e487b7100000000000000000000000000000000000000000000000000000000600052602160045260246000fd5b6004811061138b5761138a61134b565b5b50565b600081905061139c8261137a565b919050565b60006113ac8261138e565b9050919050565b6113bc816113a1565b82525050565b610100820160008201516113d96000850182611312565b5060208201516113ec6020850182611312565b5060408201516113ff6040850182611321565b5060608201516114126060850182611321565b5060808201516114256080850182611321565b5060a082015161143860a085018261133c565b5060c082015161144b60c08501826113b3565b5060e082015161145e60e0850182611321565b50505050565b60006101008201905061147a60008301846113c2565b92915050565b61148981611300565b82525050565b6114988161127d565b82525050565b6114a781611330565b82525050565b6114b6816113a1565b82525050565b6000610100820190506114d2600083018b611480565b6114df602083018a611480565b6114ec604083018961148f565b6114f9606083018861148f565b611506608083018761148f565b61151360a083018661149e565b61152060c08301856114ad565b61152d60e083018461148f565b9998505050505050505050565b61154381611300565b811461154e57600080fd5b50565b6000813590506115608161153a565b92915050565b6000806040838503121561157d5761157c611278565b5b600061158b85828601611551565b925050602061159c8582860161129e565b9150509250929050565b60006020820190506115bb600083018461148f565b92915050565b600081519050919050565b600082825260208201905092915050565b6000819050602082019050919050565b610100820160008201516116046000850182611312565b5060208201516116176020850182611312565b50604082015161162a6040850182611321565b50606082015161163d6060850182611321565b5060808201516116506080850182611321565b5060a082015161166360a085018261133c565b5060c082015161167660c08501826113b3565b5060e082015161168960e0850182611321565b50505050565b600061169b83836115ed565b6101008301905092915050565b6000602082019050919050565b60006116c0826115c1565b6116ca81856115cc565b93506116d5836115dd565b8060005b838110156117065781516116ed888261168f565b97506116f8836116a8565b9250506001810190506116d9565b5085935050505092915050565b6000602082019050818103600083015261172d81846116b5565b905092915050565b60006020828403121561174b5761174a611278565b5b600061175984828501611551565b91505092915050565b600081519050919050565b600082825260208201905092915050565b6000819050602082019050919050565b600061179a8383611321565b60208301905092915050565b6000602082019050919050565b60006117be82611762565b6117c8818561176d565b93506117d38361177e565b8060005b838110156118045781516117eb888261178e565b97506117f6836117a6565b9250506001810190506117d7565b5085935050505092915050565b6000602082019050818103600083015261182b81846117b3565b905092915050565b6000806000806080858703121561184d5761184c611278565b5b600061185b87828801611551565b945050602061186c8782880161129e565b935050604061187d8782880161129e565b925050606061188e8782880161129e565b91505092959194509250565b600082825260208201905092915050565b7f4f6e6c79207468652073656e6465722063616e2073746172742074686520736860008201527f69706d656e740000000000000000000000000000000000000000000000000000602082015250565b600061190760268361189a565b9150611912826118ab565b604082019050919050565b60006020820190508181036000830152611936816118fa565b9050919050565b7f536869706d656e74206973206e6f742070656e64696e67000000000000000000600082015250565b600061197360178361189a565b915061197e8261193d565b602082019050919050565b600060208201905081810360008301526119a281611966565b9050919050565b7f536869706d656e7420686173206e6f74206265656e207061696420666f720000600082015250565b60006119df601e8361189a565b91506119ea826119a9565b602082019050919050565b60006020820190508181036000830152611a0e816119d2565b9050919050565b7f4f6e6c79207468652072656365697665722063616e2070617920666f7220746860008201527f6520736869706d656e7400000000000000000000000000000000000000000000602082015250565b6000611a71602a8361189a565b9150611a7c82611a15565b604082019050919050565b60006020820190508181036000830152611aa081611a64565b9050919050565b7f536869706d656e742068617320616c7265616479206265656e2070616964206660008201527f6f72000000000000000000000000000000000000000000000000000000000000602082015250565b6000611b0360228361189a565b9150611b0e82611aa7565b604082019050919050565b60006020820190508181036000830152611b3281611af6565b9050919050565b7f496e73756666696369656e74207061796d656e7420666f7220736869706d656e60008201527f7400000000000000000000000000000000000000000000000000000000000000602082015250565b6000611b9560218361189a565b9150611ba082611b39565b604082019050919050565b60006020820190508181036000830152611bc481611b88565b9050919050565b7f4e487b7100000000000000000000000000000000000000000000000000000000600052604160045260246000fd5b7f4e487b7100000000000000000000000000000000000000000000000000000000600052601160045260246000fd5b6000611c348261127d565b9150611c3f8361127d565b9250828203905081811115611c5757611c56611bfa565b5b92915050565b7f4e487b7100000000000000000000000000000000000000000000000000000000600052603260045260246000fd5b6000611c978261127d565b91507fffffffffffffffffffffffffffffffffffffffffffffffffffffffffffffffff8203611cc957611cc8611bfa565b5b600182019050919050565b6000606082019050611ce9600083018661148f565b611cf6602083018561148f565b611d03604083018461148f565b949350505050565b7f4f6e6c79207468652072656365697665722063616e20636f6d706c657465207460008201527f686520736869706d656e74000000000000000000000000000000000000000000602082015250565b6000611d67602b8361189a565b9150611d7282611d0b565b604082019050919050565b60006020820190508181036000830152611d9681611d5a565b9050919050565b7f536869706d656e74206973206e6f7420696e207472616e736974000000000000600082015250565b6000611dd3601a8361189a565b9150611dde82611d9d565b602082019050919050565b60006020820190508181036000830152611e0281611dc6565b905091905056fea26469706673582212209324d4288c4060d0931ef8e01b7e245a7d70bea03c31d0ea02cdbcb7223f812264736f6c634300081c0033",
  "linkReferences": {},
  "deployedLinkReferences": {}
}